:020000020000FC
:1020000007EB0093E50000E10093E6000FE000938A
:10201000E70000E80093E40008950F921F920F93E9
:102020001F932F933F93AF93BF93EF93FF93125060
:10203000003249F00A3220F0013610F40C942410DA
:1020400000E60C9424100CE20A52000F000FE4E9A1
:10205000F0E20024E00FF01DACEEBB27212F169517
:10206000A10F34E000EF20FD0295059020FD0294C1
:102070001C90102210281C9215963A95B1F7FF91EA
:10208000EF91BF91AF913F912F911F910F911F90B1
:102090000F900895080A0A0E00080A0200000000C6
:1020A00000000A0001050A000800000409050505F2
:1020B0000801010001010E0101010B0100050B00E7
:1020C00001040B0101040F010101010001050F01D1
:1020D00001050B01000200040000000008000008D8
:1020E00000000A01000200040000000000000000DF
:1020F00001050F000109090301040401010901039D
:1021000001040E0101040E0001040D0100050F0081
:10211000000800020001050108040608000404018B
:1021200008070500000705080105050101050E0067
:102130000105050901050E08010200090108000258
:1021400000050501080404040005050C0802000C44
:102150000802000209000005010404010002000851
:10216000010101010000000000000001090F0F0F34
:040000000C940E014D
:1002000006004E45425544452D4C49205052534519
:1002100054204E455A4D4F4B4E454D000FEF0DBFEC
:1002200004E00EBF0E940010E2E0F2E00E946C01C8
:100230000591003049F0B02F0E9453010E947201D5
:100240000E9447010C941801B0E20E9472010E94C2
:1002500053010E9447010E9472010E9453010E94B3
:1002600047010E9472010E9453010E9447010E94AF
:1002700072010E9453010E9447010E9472010E9474
:1002800053010E9447010C9414010C9445010F93F3
:100290001F9310E80FEF0A950000E9F71A95D9F7B8
:1002A0000F911F91089512E0062F0E940D101395D3
:1002B000072F0E940D101395082F0E940D10139503
:1002C000092F0E940D1013950A2F0E940D101395EF
:1002D0000B2F0E940D10089560E270E280E290E220
:0E02E000A0E20895672F782F892F9A2FAB2F59
:00000001FF
